{
  "_format": "hh-sol-artifact-1",
  "contractName": "DevDIDs",
  "sourceName": "contracts/DevDIDs.sol",
  "abi": [
    {
      "inputs": [],
      "stateMutability": "nonpayable",
      "type": "constructor"
    },
    {
      "anonymous": false,
      "inputs": [
        {
          "indexed": true,
          "internalType": "address",
          "name": "owner",
          "type": "address"
        },
        {
          "indexed": true,
          "internalType": "address",
          "name": "approved",
          "type": "address"
        },
        {
          "indexed": true,
          "internalType": "uint256",
          "name": "tokenId",
          "type": "uint256"
        }
      ],
      "name": "Approval",
      "type": "event"
    },
    {
      "anonymous": false,
      "inputs": [
        {
          "indexed": true,
          "internalType": "address",
          "name": "owner",
          "type": "address"
        },
        {
          "indexed": true,
          "internalType": "address",
          "name": "operator",
          "type": "address"
        },
        {
          "indexed": false,
          "internalType": "bool",
          "name": "approved",
          "type": "bool"
        }
      ],
      "name": "ApprovalForAll",
      "type": "event"
    },
    {
      "anonymous": false,
      "inputs": [
        {
          "indexed": false,
          "internalType": "address",
          "name": "holder",
          "type": "address"
        },
        {
          "indexed": false,
          "internalType": "address",
          "name": "issuer",
          "type": "address"
        },
        {
          "indexed": false,
          "internalType": "uint256",
          "name": "vcId",
          "type": "uint256"
        }
      ],
      "name": "Delete",
      "type": "event"
    },
    {
      "anonymous": false,
      "inputs": [
        {
          "indexed": false,
          "internalType": "address",
          "name": "issuer",
          "type": "address"
        },
        {
          "indexed": false,
          "internalType": "address",
          "name": "holder",
          "type": "address"
        },
        {
          "indexed": false,
          "internalType": "uint256",
          "name": "vcId",
          "type": "uint256"
        }
      ],
      "name": "Issue",
      "type": "event"
    },
    {
      "anonymous": false,
      "inputs": [
        {
          "indexed": false,
          "internalType": "address",
          "name": "issuer",
          "type": "address"
        },
        {
          "indexed": false,
          "internalType": "address",
          "name": "holder",
          "type": "address"
        },
        {
          "indexed": false,
          "internalType": "uint256",
          "name": "vcId",
          "type": "uint256"
        }
      ],
      "name": "Revoke",
      "type": "event"
    },
    {
      "anonymous": false,
      "inputs": [
        {
          "indexed": false,
          "internalType": "address",
          "name": "issuer",
          "type": "address"
        },
        {
          "indexed": false,
          "internalType": "address",
          "name": "holder",
          "type": "address"
        },
        {
          "indexed": false,
          "internalType": "uint256",
          "name": "vcId",
          "type": "uint256"
        },
        {
          "indexed": false,
          "internalType": "bool",
          "name": "suspended",
          "type": "bool"
        }
      ],
      "name": "Suspend",
      "type": "event"
    },
    {
      "anonymous": false,
      "inputs": [
        {
          "indexed": true,
          "internalType": "address",
          "name": "from",
          "type": "address"
        },
        {
          "indexed": true,
          "internalType": "address",
          "name": "to",
          "type": "address"
        },
        {
          "indexed": true,
          "internalType": "uint256",
          "name": "tokenId",
          "type": "uint256"
        }
      ],
      "name": "Transfer",
      "type": "event"
    },
    {
      "inputs": [
        {
          "internalType": "address",
          "name": "to",
          "type": "address"
        },
        {
          "internalType": "uint256",
          "name": "tokenId",
          "type": "uint256"
        }
      ],
      "name": "approve",
      "outputs": [],
      "stateMutability": "nonpayable",
      "type": "function"
    },
    {
      "inputs": [
        {
          "internalType": "address",
          "name": "owner",
          "type": "address"
        }
      ],
      "name": "balanceOf",
      "outputs": [
        {
          "internalType": "uint256",
          "name": "",
          "type": "uint256"
        }
      ],
      "stateMutability": "view",
      "type": "function"
    },
    {
      "inputs": [
        {
          "internalType": "uint256",
          "name": "vcId",
          "type": "uint256"
        }
      ],
      "name": "delete_",
      "outputs": [],
      "stateMutability": "nonpayable",
      "type": "function"
    },
    {
      "inputs": [
        {
          "internalType": "uint256[]",
          "name": "userVcs",
          "type": "uint256[]"
        },
        {
          "internalType": "uint256",
          "name": "validFrom_",
          "type": "uint256"
        },
        {
          "internalType": "uint256",
          "name": "validTo_",
          "type": "uint256"
        }
      ],
      "name": "generateVp",
      "outputs": [
        {
          "components": [
            {
              "internalType": "uint256[]",
              "name": "vcs",
              "type": "uint256[]"
            },
            {
              "internalType": "uint256",
              "name": "validFrom",
              "type": "uint256"
            },
            {
              "internalType": "uint256",
              "name": "validTo",
              "type": "uint256"
            }
          ],
          "internalType": "struct IVerifiableCredential.VerifiablePresentation",
          "name": "vp",
          "type": "tuple"
        }
      ],
      "stateMutability": "view",
      "type": "function"
    },
    {
      "inputs": [
        {
          "internalType": "uint256",
          "name": "tokenId",
          "type": "uint256"
        }
      ],
      "name": "getApproved",
      "outputs": [
        {
          "internalType": "address",
          "name": "",
          "type": "address"
        }
      ],
      "stateMutability": "view",
      "type": "function"
    },
    {
      "inputs": [
        {
          "internalType": "uint256",
          "name": "vcId",
          "type": "uint256"
        }
      ],
      "name": "getVc",
      "outputs": [
        {
          "components": [
            {
              "internalType": "address",
              "name": "issuer",
              "type": "address"
            },
            {
              "internalType": "address",
              "name": "holder",
              "type": "address"
            },
            {
              "internalType": "string",
              "name": "subject",
              "type": "string"
            },
            {
              "internalType": "string",
              "name": "data",
              "type": "string"
            },
            {
              "internalType": "uint256",
              "name": "validFrom",
              "type": "uint256"
            },
            {
              "internalType": "uint256",
              "name": "validTo",
              "type": "uint256"
            },
            {
              "internalType": "bool",
              "name": "suspended",
              "type": "bool"
            }
          ],
          "internalType": "struct IVerifiableCredential.VerifiableCredential",
          "name": "",
          "type": "tuple"
        }
      ],
      "stateMutability": "view",
      "type": "function"
    },
    {
      "inputs": [
        {
          "internalType": "address",
          "name": "owner",
          "type": "address"
        },
        {
          "internalType": "address",
          "name": "operator",
          "type": "address"
        }
      ],
      "name": "isApprovedForAll",
      "outputs": [
        {
          "internalType": "bool",
          "name": "",
          "type": "bool"
        }
      ],
      "stateMutability": "view",
      "type": "function"
    },
    {
      "inputs": [
        {
          "internalType": "address",
          "name": "to",
          "type": "address"
        },
        {
          "internalType": "string",
          "name": "subject_",
          "type": "string"
        },
        {
          "internalType": "string",
          "name": "data_",
          "type": "string"
        },
        {
          "internalType": "uint256",
          "name": "validFrom_",
          "type": "uint256"
        },
        {
          "internalType": "uint256",
          "name": "validTo_",
          "type": "uint256"
        }
      ],
      "name": "issue",
      "outputs": [
        {
          "internalType": "uint256",
          "name": "vcId",
          "type": "uint256"
        }
      ],
      "stateMutability": "nonpayable",
      "type": "function"
    },
    {
      "inputs": [],
      "name": "name",
      "outputs": [
        {
          "internalType": "string",
          "name": "",
          "type": "string"
        }
      ],
      "stateMutability": "view",
      "type": "function"
    },
    {
      "inputs": [
        {
          "internalType": "uint256",
          "name": "tokenId",
          "type": "uint256"
        }
      ],
      "name": "ownerOf",
      "outputs": [
        {
          "internalType": "address",
          "name": "",
          "type": "address"
        }
      ],
      "stateMutability": "view",
      "type": "function"
    },
    {
      "inputs": [
        {
          "internalType": "uint256",
          "name": "vcId",
          "type": "uint256"
        }
      ],
      "name": "revoke",
      "outputs": [],
      "stateMutability": "nonpayable",
      "type": "function"
    },
    {
      "inputs": [
        {
          "internalType": "address",
          "name": "from",
          "type": "address"
        },
        {
          "internalType": "address",
          "name": "to",
          "type": "address"
        },
        {
          "internalType": "uint256",
          "name": "tokenId",
          "type": "uint256"
        }
      ],
      "name": "safeTransferFrom",
      "outputs": [],
      "stateMutability": "nonpayable",
      "type": "function"
    },
    {
      "inputs": [
        {
          "internalType": "address",
          "name": "from",
          "type": "address"
        },
        {
          "internalType": "address",
          "name": "to",
          "type": "address"
        },
        {
          "internalType": "uint256",
          "name": "tokenId",
          "type": "uint256"
        },
        {
          "internalType": "bytes",
          "name": "_data",
          "type": "bytes"
        }
      ],
      "name": "safeTransferFrom",
      "outputs": [],
      "stateMutability": "nonpayable",
      "type": "function"
    },
    {
      "inputs": [
        {
          "internalType": "address",
          "name": "operator",
          "type": "address"
        },
        {
          "internalType": "bool",
          "name": "approved",
          "type": "bool"
        }
      ],
      "name": "setApprovalForAll",
      "outputs": [],
      "stateMutability": "nonpayable",
      "type": "function"
    },
    {
      "inputs": [
        {
          "internalType": "uint256",
          "name": "vcId",
          "type": "uint256"
        },
        {
          "internalType": "bool",
          "name": "suspended",
          "type": "bool"
        }
      ],
      "name": "setSuspended",
      "outputs": [],
      "stateMutability": "nonpayable",
      "type": "function"
    },
    {
      "inputs": [
        {
          "internalType": "bytes4",
          "name": "interfaceId",
          "type": "bytes4"
        }
      ],
      "name": "supportsInterface",
      "outputs": [
        {
          "internalType": "bool",
          "name": "",
          "type": "bool"
        }
      ],
      "stateMutability": "view",
      "type": "function"
    },
    {
      "inputs": [],
      "name": "symbol",
      "outputs": [
        {
          "internalType": "string",
          "name": "",
          "type": "string"
        }
      ],
      "stateMutability": "view",
      "type": "function"
    },
    {
      "inputs": [
        {
          "internalType": "uint256",
          "name": "tokenId",
          "type": "uint256"
        }
      ],
      "name": "tokenURI",
      "outputs": [
        {
          "internalType": "string",
          "name": "",
          "type": "string"
        }
      ],
      "stateMutability": "view",
      "type": "function"
    },
    {
      "inputs": [
        {
          "internalType": "address",
          "name": "from",
          "type": "address"
        },
        {
          "internalType": "address",
          "name": "to",
          "type": "address"
        },
        {
          "internalType": "uint256",
          "name": "tokenId",
          "type": "uint256"
        }
      ],
      "name": "transferFrom",
      "outputs": [],
      "stateMutability": "nonpayable",
      "type": "function"
    },
    {
      "inputs": [
        {
          "internalType": "address",
          "name": "address_",
          "type": "address"
        }
      ],
      "name": "vcsOfHolder",
      "outputs": [
        {
          "internalType": "uint256[]",
          "name": "",
          "type": "uint256[]"
        }
      ],
      "stateMutability": "view",
      "type": "function"
    },
    {
      "inputs": [
        {
          "internalType": "address",
          "name": "address_",
          "type": "address"
        }
      ],
      "name": "vcsOfIssuer",
      "outputs": [
        {
          "internalType": "uint256[]",
          "name": "",
          "type": "uint256[]"
        }
      ],
      "stateMutability": "view",
      "type": "function"
    },
    {
      "inputs": [
        {
          "components": [
            {
              "internalType": "uint256[]",
              "name": "vcs",
              "type": "uint256[]"
            },
            {
              "internalType": "uint256",
              "name": "validFrom",
              "type": "uint256"
            },
            {
              "internalType": "uint256",
              "name": "validTo",
              "type": "uint256"
            }
          ],
          "internalType": "struct IVerifiableCredential.VerifiablePresentation",
          "name": "vp",
          "type": "tuple"
        },
        {
          "internalType": "address",
          "name": "holder",
          "type": "address"
        },
        {
          "internalType": "uint256",
          "name": "currentDate",
          "type": "uint256"
        }
      ],
      "name": "verify",
      "outputs": [
        {
          "internalType": "bool",
          "name": "",
          "type": "bool"
        },
        {
          "internalType": "string",
          "name": "",
          "type": "string"
        }
      ],
      "stateMutability": "view",
      "type": "function"
    }
  ],
  "bytecode": "0x60806040523480156200001157600080fd5b50604051806060016040528060238152602001620054fd602391396040518060400160405280600681526020017f446576444944000000000000000000000000000000000000000000000000000081525081600090805190602001906200007a9291906200009c565b508060019080519060200190620000939291906200009c565b505050620001b1565b828054620000aa906200017b565b90600052602060002090601f016020900481019282620000ce57600085556200011a565b82601f10620000e957805160ff19168380011785556200011a565b828001600101855582156200011a579182015b8281111562000119578251825591602001919060010190620000fc565b5b5090506200012991906200012d565b5090565b5b80821115620001485760008160009055506001016200012e565b5090565b7f4e487b7100000000000000000000000000000000000000000000000000000000600052602260045260246000fd5b600060028204905060018216806200019457607f821691505b60208210811415620001ab57620001aa6200014c565b5b50919050565b61533c80620001c16000396000f3fe608060405234801561001057600080fd5b50600436106101425760003560e01c806370a08231116100b8578063b8d075dd1161007c578063b8d075dd14610397578063bf66dbb7146103c8578063c87b56dd146103f8578063db22635614610428578063e985e9c514610444578063f0ed9b271461047457610142565b806370a08231146102f55780637374bd601461032557806395d89b4114610341578063a22cb4651461035f578063b88d4fde1461037b57610142565b806323b872dd1161010a57806323b872dd146101fd57806330cb7912146102195780633451060f1461024957806342842e0e146102795780634321dc57146102955780636352211e146102c557610142565b806301ffc9a71461014757806306fdde0314610177578063081812fc14610195578063095ea7b3146101c557806320c5429b146101e1575b600080fd5b610161600480360381019061015c9190613436565b6104a4565b60405161016e919061347e565b60405180910390f35b61017f610586565b60405161018c9190613532565b60405180910390f35b6101af60048036038101906101aa919061358a565b610618565b6040516101bc91906135f8565b60405180910390f35b6101df60048036038101906101da919061363f565b61069d565b005b6101fb60048036038101906101f6919061358a565b6107b5565b005b6102176004803603810190610212919061367f565b610b4f565b005b610233600480360381019061022e9190613737565b610baf565b60405161024091906138b9565b60405180910390f35b610263600480360381019061025e919061358a565b611031565b60405161027091906139e6565b60405180910390f35b610293600480360381019061028e919061367f565b6112a5565b005b6102af60048036038101906102aa9190613b38565b6112c5565b6040516102bc9190613bfa565b60405180910390f35b6102df60048036038101906102da919061358a565b61161c565b6040516102ec91906135f8565b60405180910390f35b61030f600480360381019061030a9190613c15565b6116ce565b60405161031c9190613bfa565b60405180910390f35b61033f600480360381019061033a919061358a565b611786565b005b610349611b20565b6040516103569190613532565b60405180910390f35b61037960048036038101906103749190613c6e565b611bb2565b005b61039560048036038101906103909190613d4f565b611bc8565b005b6103b160048036038101906103ac9190613f1f565b611c2a565b6040516103bf929190613f8e565b60405180910390f35b6103e260048036038101906103dd9190613c15565b612030565b6040516103ef919061402d565b60405180910390f35b610412600480360381019061040d919061358a565b6120c7565b60405161041f9190613532565b60405180910390f35b610442600480360381019061043d919061404f565b61216e565b005b61045e6004803603810190610459919061408f565b612299565b60405161046b919061347e565b60405180910390f35b61048e60048036038101906104899190613c15565b61232d565b60405161049b919061402d565b60405180910390f35b60007f80ac58cd000000000000000000000000000000000000000000000000000000007bffffffffffffffffffffffffffffffffffffffffffffffffffffffff1916827bffffffffffffffffffffffffffffffffffffffffffffffffffffffff1916148061056f57507f5b5e139f000000000000000000000000000000000000000000000000000000007bffffffffffffffffffffffffffffffffffffffffffffffffffffffff1916827bffffffffffffffffffffffffffffffffffffffffffffffffffffffff1916145b8061057f575061057e826123c4565b5b9050919050565b606060008054610595906140fe565b80601f01602080910402602001604051908101604052809291908181526020018280546105c1906140fe565b801561060e5780601f106105e35761010080835404028352916020019161060e565b820191906000526020600020905b8154815290600101906020018083116105f157829003601f168201915b5050505050905090565b60006106238261242e565b610662576040517f08c379a0000000000000000000000000000000000000000000000000000000008152600401610659906141a2565b60405180910390fd5b6004600083815260200190815260200160002060009054906101000a900473ffffffffffffffffffffffffffffffffffffffff169050919050565b60006106a88261161c565b90508073ffffffffffffffffffffffffffffffffffffffff168373ffffffffffffffffffffffffffffffffffffffff161415610719576040517f08c379a000000000000000000000000000000000000000000000000000000000815260040161071090614234565b60405180910390fd5b8073ffffffffffffffffffffffffffffffffffffffff1661073861249a565b73ffffffffffffffffffffffffffffffffffffffff16148061076757506107668161076161249a565b612299565b5b6107a6576040517f08c379a000000000000000000000000000000000000000000000000000000000815260040161079d906142c6565b60405180910390fd5b6107b083836124a2565b505050565b6000600760008381526020019081526020016000206040518060e00160405290816000820160009054906101000a900473ffffffffffffffffffffffffffffffffffffffff1673ffffffffffffffffffffffffffffffffffffffff1673ffffffffffffffffffffffffffffffffffffffff1681526020016001820160009054906101000a900473ffffffffffffffffffffffffffffffffffffffff1673ffffffffffffffffffffffffffffffffffffffff1673ffffffffffffffffffffffffffffffffffffffff168152602001600282018054610891906140fe565b80601f01602080910402602001604051908101604052809291908181526020018280546108bd906140fe565b801561090a5780601f106108df5761010080835404028352916020019161090a565b820191906000526020600020905b8154815290600101906020018083116108ed57829003601f168201915b50505050508152602001600382018054610923906140fe565b80601f016020809104026020016040519081016040528092919081815260200182805461094f906140fe565b801561099c5780601f106109715761010080835404028352916020019161099c565b820191906000526020600020905b81548152906001019060200180831161097f57829003601f168201915b5050505050815260200160048201548152602001600582015481526020016006820160009054906101000a900460ff16151515158152505090503373ffffffffffffffffffffffffffffffffffffffff16816000015173ffffffffffffffffffffffffffffffffffffffff1614610a48576040517f08c379a0000000000000000000000000000000000000000000000000000000008152600401610a3f90614358565b60405180910390fd5b610a518261255b565b610a64828260200151836000015161266c565b60076000838152602001908152602001600020600080820160006101000a81549073ffffffffffffffffffffffffffffffffffffffff02191690556001820160006101000a81549073ffffffffffffffffffffffffffffffffffffffff0219169055600282016000610ad6919061325b565b600382016000610ae6919061325b565b600482016000905560058201600090556006820160006101000a81549060ff021916905550507fb698e31a2abee5824d0d7bcfd2339aead7f9e9ae413fba50bf554ff3fa470b7b33826020015184604051610b4393929190614378565b60405180910390a15050565b610b60610b5a61249a565b826127d5565b610b9f576040517f08c379a0000000000000000000000000000000000000000000000000000000008152600401610b9690614421565b60405180910390fd5b610baa8383836128b3565b505050565b610bb761329b565b828211610bf9576040517f08c379a0000000000000000000000000000000000000000000000000000000008152600401610bf0906144b3565b60405180910390fd5b60005b85859050811015610fca57610c29868683818110610c1d57610c1c6144d3565b5b9050602002013561242e565b610c68576040517f08c379a0000000000000000000000000000000000000000000000000000000008152600401610c5f9061454e565b60405180910390fd5b600060076000888885818110610c8157610c806144d3565b5b9050602002013581526020019081526020016000206040518060e00160405290816000820160009054906101000a900473ffffffffffffffffffffffffffffffffffffffff1673ffffffffffffffffffffffffffffffffffffffff1673ffffffffffffffffffffffffffffffffffffffff1681526020016001820160009054906101000a900473ffffffffffffffffffffffffffffffffffffffff1673ffffffffffffffffffffffffffffffffffffffff1673ffffffffffffffffffffffffffffffffffffffff168152602001600282018054610d5d906140fe565b80601f0160208091040260200160405190810160405280929190818152602001828054610d89906140fe565b8015610dd65780601f10610dab57610100808354040283529160200191610dd6565b820191906000526020600020905b815481529060010190602001808311610db957829003601f168201915b50505050508152602001600382018054610def906140fe565b80601f0160208091040260200160405190810160405280929190818152602001828054610e1b906140fe565b8015610e685780601f10610e3d57610100808354040283529160200191610e68565b820191906000526020600020905b815481529060010190602001808311610e4b57829003601f168201915b5050505050815260200160048201548152602001600582015481526020016006820160009054906101000a900460ff16151515158152505090503373ffffffffffffffffffffffffffffffffffffffff16816020015173ffffffffffffffffffffffffffffffffffffffff1614610f14576040517f08c379a0000000000000000000000000000000000000000000000000000000008152600401610f0b906145e0565b60405180910390fd5b600015158160c00151151514610f5f576040517f08c379a0000000000000000000000000000000000000000000000000000000008152600401610f569061464c565b60405180910390fd5b80608001518510158015610f7757508060a001518411155b610fb6576040517f08c379a0000000000000000000000000000000000000000000000000000000008152600401610fad90614704565b60405180910390fd5b508080610fc290614753565b915050610bfc565b506040518060600160405280868680806020026020016040519081016040528093929190818152602001838360200280828437600081840152601f19601f820116905080830192505050505050508152602001848152602001838152509050949350505050565b6110396132bc565b6110428261242e565b611081576040517f08c379a0000000000000000000000000000000000000000000000000000000008152600401611078906147e8565b60405180910390fd5b600760008381526020019081526020016000206040518060e00160405290816000820160009054906101000a900473ffffffffffffffffffffffffffffffffffffffff1673ffffffffffffffffffffffffffffffffffffffff1673ffffffffffffffffffffffffffffffffffffffff1681526020016001820160009054906101000a900473ffffffffffffffffffffffffffffffffffffffff1673ffffffffffffffffffffffffffffffffffffffff1673ffffffffffffffffffffffffffffffffffffffff16815260200160028201805461115b906140fe565b80601f0160208091040260200160405190810160405280929190818152602001828054611187906140fe565b80156111d45780601f106111a9576101008083540402835291602001916111d4565b820191906000526020600020905b8154815290600101906020018083116111b757829003601f168201915b505050505081526020016003820180546111ed906140fe565b80601f0160208091040260200160405190810160405280929190818152602001828054611219906140fe565b80156112665780601f1061123b57610100808354040283529160200191611266565b820191906000526020600020905b81548152906001019060200180831161124957829003601f168201915b5050505050815260200160048201548152602001600582015481526020016006820160009054906101000a900460ff1615151515815250509050919050565b6112c083838360405180602001604052806000815250611bc8565b505050565b60008573ffffffffffffffffffffffffffffffffffffffff163373ffffffffffffffffffffffffffffffffffffffff161415611336576040517f08c379a000000000000000000000000000000000000000000000000000000000815260040161132d9061487a565b60405180910390fd5b828211611378576040517f08c379a000000000000000000000000000000000000000000000000000000000815260040161136f9061490c565b60405180910390fd5b6113826006612b0f565b61138c6006612b25565b90506113988682612b33565b6040518060e001604052803373ffffffffffffffffffffffffffffffffffffffff1681526020018773ffffffffffffffffffffffffffffffffffffffff168152602001868152602001858152602001848152602001838152602001600015158152506007600083815260200190815260200160002060008201518160000160006101000a81548173ffffffffffffffffffffffffffffffffffffffff021916908373ffffffffffffffffffffffffffffffffffffffff16021790555060208201518160010160006101000a81548173ffffffffffffffffffffffffffffffffffffffff021916908373ffffffffffffffffffffffffffffffffffffffff16021790555060408201518160020190805190602001906114b7929190613327565b5060608201518160030190805190602001906114d4929190613327565b506080820151816004015560a0820151816005015560c08201518160060160006101000a81548160ff021916908315150217905550905050600860003373ffffffffffffffffffffffffffffffffffffffff1673ffffffffffffffffffffffffffffffffffffffff168152602001908152602001600020819080600181540180825580915050600190039060005260206000200160009091909190915055600960008773ffffffffffffffffffffffffffffffffffffffff1673ffffffffffffffffffffffffffffffffffffffff1681526020019081526020016000208190806001815401808255809150506001900390600052602060002001600090919091909150557f4b2682685b046a3dae8e75ff49b82fa703e366056a43c6a791411011134f4f5d33878360405161160b93929190614378565b60405180910390a195945050505050565b6000806002600084815260200190815260200160002060009054906101000a900473ffffffffffffffffffffffffffffffffffffffff169050600073ffffffffffffffffffffffffffffffffffffffff168173ffffffffffffffffffffffffffffffffffffffff1614156116c5576040517f08c379a00000000000000000000000000000000000000000000000000000000081526004016116bc9061499e565b60405180910390fd5b80915050919050565b60008073ffffffffffffffffffffffffffffffffffffffff168273ffffffffffffffffffffffffffffffffffffffff16141561173f576040517f08c379a000000000000000000000000000000000000000000000000000000000815260040161173690614a30565b60405180910390fd5b600360008373ffffffffffffffffffffffffffffffffffffffff1673ffffffffffffffffffffffffffffffffffffffff168152602001908152602001600020549050919050565b6000600760008381526020019081526020016000206040518060e00160405290816000820160009054906101000a900473ffffffffffffffffffffffffffffffffffffffff1673ffffffffffffffffffffffffffffffffffffffff1673ffffffffffffffffffffffffffffffffffffffff1681526020016001820160009054906101000a900473ffffffffffffffffffffffffffffffffffffffff1673ffffffffffffffffffffffffffffffffffffffff1673ffffffffffffffffffffffffffffffffffffffff168152602001600282018054611862906140fe565b80601f016020809104026020016040519081016040528092919081815260200182805461188e906140fe565b80156118db5780601f106118b0576101008083540402835291602001916118db565b820191906000526020600020905b8154815290600101906020018083116118be57829003601f168201915b505050505081526020016003820180546118f4906140fe565b80601f0160208091040260200160405190810160405280929190818152602001828054611920906140fe565b801561196d5780601f106119425761010080835404028352916020019161196d565b820191906000526020600020905b81548152906001019060200180831161195057829003601f168201915b5050505050815260200160048201548152602001600582015481526020016006820160009054906101000a900460ff16151515158152505090503373ffffffffffffffffffffffffffffffffffffffff16816020015173ffffffffffffffffffffffffffffffffffffffff1614611a19576040517f08c379a0000000000000000000000000000000000000000000000000000000008152600401611a1090614ac2565b60405180910390fd5b611a228261255b565b611a35828260200151836000015161266c565b60076000838152602001908152602001600020600080820160006101000a81549073ffffffffffffffffffffffffffffffffffffffff02191690556001820160006101000a81549073ffffffffffffffffffffffffffffffffffffffff0219169055600282016000611aa7919061325b565b600382016000611ab7919061325b565b600482016000905560058201600090556006820160006101000a81549060ff021916905550507f96ac14664ec6176bc1e51df4af21e00dd17fe9cd941a9dbb43faffcb3263800933826000015184604051611b1493929190614378565b60405180910390a15050565b606060018054611b2f906140fe565b80601f0160208091040260200160405190810160405280929190818152602001828054611b5b906140fe565b8015611ba85780601f10611b7d57610100808354040283529160200191611ba8565b820191906000526020600020905b815481529060010190602001808311611b8b57829003601f168201915b5050505050905090565b611bc4611bbd61249a565b8383612b51565b5050565b611bd9611bd361249a565b836127d5565b611c18576040517f08c379a0000000000000000000000000000000000000000000000000000000008152600401611c0f90614421565b60405180910390fd5b611c2484848484612cbe565b50505050565b600060608460200151831080611c435750846040015183115b15611c6c57600060405180606001604052806029815260200161525c6029913991509150612028565b60005b85600001515181101561201057611ca386600001518281518110611c9657611c956144d3565b5b602002602001015161242e565b611ccc5760006040518060600160405280602b81526020016152ac602b91399250925050612028565b60006007600088600001518481518110611ce957611ce86144d3565b5b602002602001015181526020019081526020016000206040518060e00160405290816000820160009054906101000a900473ffffffffffffffffffffffffffffffffffffffff1673ffffffffffffffffffffffffffffffffffffffff1673ffffffffffffffffffffffffffffffffffffffff1681526020016001820160009054906101000a900473ffffffffffffffffffffffffffffffffffffffff1673ffffffffffffffffffffffffffffffffffffffff1673ffffffffffffffffffffffffffffffffffffffff168152602001600282018054611dc6906140fe565b80601f0160208091040260200160405190810160405280929190818152602001828054611df2906140fe565b8015611e3f5780601f10611e1457610100808354040283529160200191611e3f565b820191906000526020600020905b815481529060010190602001808311611e2257829003601f168201915b50505050508152602001600382018054611e58906140fe565b80601f0160208091040260200160405190810160405280929190818152602001828054611e84906140fe565b8015611ed15780601f10611ea657610100808354040283529160200191611ed1565b820191906000526020600020905b815481529060010190602001808311611eb457829003601f168201915b5050505050815260200160048201548152602001600582015481526020016006820160009054906101000a900460ff16151515158152505090508573ffffffffffffffffffffffffffffffffffffffff16816020015173ffffffffffffffffffffffffffffffffffffffff1614611f6857600060405180606001604052806027815260200161528560279139935093505050612028565b600115158160c0015115151415611fbc5760006040518060400160405280601f81526020017f446576444944733a20736f6d6520766373206172652073757370656e64656400815250935093505050612028565b8060800151851080611fd157508060a0015185115b15611ffc5760006040518060600160405280603081526020016152d760309139935093505050612028565b50808061200890614753565b915050611c6f565b50600160405180602001604052806000815250915091505b935093915050565b6060600860008373ffffffffffffffffffffffffffffffffffffffff1673ffffffffffffffffffffffffffffffffffffffff1681526020019081526020016000208054806020026020016040519081016040528092919081815260200182805480156120bb57602002820191906000526020600020905b8154815260200190600101908083116120a7575b50505050509050919050565b60606120d28261242e565b612111576040517f08c379a000000000000000000000000000000000000000000000000000000000815260040161210890614b54565b60405180910390fd5b600061211b612d1a565b9050600081511161213b5760405180602001604052806000815250612166565b8061214584612d31565b604051602001612156929190614bb0565b6040516020818303038152906040525b915050919050565b60006007600084815260200190815260200160002090503373ffffffffffffffffffffffffffffffffffffffff168160000160009054906101000a900473ffffffffffffffffffffffffffffffffffffffff1673ffffffffffffffffffffffffffffffffffffffff1614612217576040517f08c379a000000000000000000000000000000000000000000000000000000000815260040161220e90614c6c565b60405180910390fd5b818160060160006101000a81548160ff0219169083151502179055507fb842a4b90847f3634cd60261b05d9c02ac2f64fcb2771310c993ffa0a89cb23f338260010160009054906101000a900473ffffffffffffffffffffffffffffffffffffffff16858560405161228c9493929190614c8c565b60405180910390a1505050565b6000600560008473ffffffffffffffffffffffffffffffffffffffff1673ffffffffffffffffffffffffffffffffffffffff16815260200190815260200160002060008373ffffffffffffffffffffffffffffffffffffffff1673ffffffffffffffffffffffffffffffffffffffff16815260200190815260200160002060009054906101000a900460ff16905092915050565b6060600960008373ffffffffffffffffffffffffffffffffffffffff1673ffffffffffffffffffffffffffffffffffffffff1681526020019081526020016000208054806020026020016040519081016040528092919081815260200182805480156123b857602002820191906000526020600020905b8154815260200190600101908083116123a4575b50505050509050919050565b60007f01ffc9a7000000000000000000000000000000000000000000000000000000007bffffffffffffffffffffffffffffffffffffffffffffffffffffffff1916827bffffffffffffffffffffffffffffffffffffffffffffffffffffffff1916149050919050565b60008073ffffffffffffffffffffffffffffffffffffffff166002600084815260200190815260200160002060009054906101000a900473ffffffffffffffffffffffffffffffffffffffff1673ffffffffffffffffffffffffffffffffffffffff1614159050919050565b600033905090565b816004600083815260200190815260200160002060006101000a81548173ffffffffffffffffffffffffffffffffffffffff021916908373ffffffffffffffffffffffffffffffffffffffff160217905550808273ffffffffffffffffffffffffffffffffffffffff166125158361161c565b73ffffffffffffffffffffffffffffffffffffffff167f8c5be1e5ebec7d5bd14f71427d1e84f3dd0314c0f7b2291e5b200ac8c7c3b92560405160405180910390a45050565b60006125668261161c565b905061257481600084612e92565b61257f6000836124a2565b6001600360008373ffffffffffffffffffffffffffffffffffffffff1673ffffffffffffffffffffffffffffffffffffffff16815260200190815260200160002060008282546125cf9190614cd1565b925050819055506002600083815260200190815260200160002060006101000a81549073ffffffffffffffffffffffffffffffffffffffff021916905581600073ffffffffffffffffffffffffffffffffffffffff168273ffffffffffffffffffffffffffffffffffffffff167fddf252ad1be2c89b69c2b068fc378daa952ba7f163c4a11628f55a4df523b3ef60405160405180910390a45050565b6000600960008473ffffffffffffffffffffffffffffffffffffffff1673ffffffffffffffffffffffffffffffffffffffff168152602001908152602001600020905060005b818054905081101561271c57848282815481106126d2576126d16144d3565b5b90600052602060002001541415612709578181815481106126f6576126f56144d3565b5b906000526020600020016000905561271c565b808061271490614753565b9150506126b2565b506000600860008473ffffffffffffffffffffffffffffffffffffffff1673ffffffffffffffffffffffffffffffffffffffff168152602001908152602001600020905060005b81805490508110156127cd5785828281548110612783576127826144d3565b5b906000526020600020015414156127ba578181815481106127a7576127a66144d3565b5b90600052602060002001600090556127cd565b80806127c590614753565b915050612763565b505050505050565b60006127e08261242e565b61281f576040517f08c379a000000000000000000000000000000000000000000000000000000000815260040161281690614d77565b60405180910390fd5b600061282a8361161c565b90508073ffffffffffffffffffffffffffffffffffffffff168473ffffffffffffffffffffffffffffffffffffffff16148061289957508373ffffffffffffffffffffffffffffffffffffffff1661288184610618565b73ffffffffffffffffffffffffffffffffffffffff16145b806128aa57506128a98185612299565b5b91505092915050565b8273ffffffffffffffffffffffffffffffffffffffff166128d38261161c565b73ffffffffffffffffffffffffffffffffffffffff1614612929576040517f08c379a000000000000000000000000000000000000000000000000000000000815260040161292090614e09565b60405180910390fd5b600073ffffffffffffffffffffffffffffffffffffffff168273ffffffffffffffffffffffffffffffffffffffff161415612999576040517f08c379a000000000000000000000000000000000000000000000000000000000815260040161299090614e9b565b60405180910390fd5b6129a4838383612e92565b6129af6000826124a2565b6001600360008573ffffffffffffffffffffffffffffffffffffffff1673ffffffffffffffffffffffffffffffffffffffff16815260200190815260200160002060008282546129ff9190614cd1565b925050819055506001600360008473ffffffffffffffffffffffffffffffffffffffff1673ffffffffffffffffffffffffffffffffffffffff1681526020019081526020016000206000828254612a569190614ebb565b92505081905550816002600083815260200190815260200160002060006101000a81548173ffffffffffffffffffffffffffffffffffffffff021916908373ffffffffffffffffffffffffffffffffffffffff160217905550808273ffffffffffffffffffffffffffffffffffffffff168473ffffffffffffffffffffffffffffffffffffffff167fddf252ad1be2c89b69c2b068fc378daa952ba7f163c4a11628f55a4df523b3ef60405160405180910390a4505050565b6001816000016000828254019250508190555050565b600081600001549050919050565b612b4d828260405180602001604052806000815250612e97565b5050565b8173ffffffffffffffffffffffffffffffffffffffff168373ffffffffffffffffffffffffffffffffffffffff161415612bc0576040517f08c379a0000000000000000000000000000000000000000000000000000000008152600401612bb790614f5d565b60405180910390fd5b80600560008573ffffffffffffffffffffffffffffffffffffffff1673ffffffffffffffffffffffffffffffffffffffff16815260200190815260200160002060008473ffffffffffffffffffffffffffffffffffffffff1673ffffffffffffffffffffffffffffffffffffffff16815260200190815260200160002060006101000a81548160ff0219169083151502179055508173ffffffffffffffffffffffffffffffffffffffff168373ffffffffffffffffffffffffffffffffffffffff167f17307eab39ab6107e8899845ad3d59bd9653f200f220920489ca2b5937696c3183604051612cb1919061347e565b60405180910390a3505050565b612cc98484846128b3565b612cd584848484612ef2565b612d14576040517f08c379a0000000000000000000000000000000000000000000000000000000008152600401612d0b90614fef565b60405180910390fd5b50505050565b606060405180602001604052806000815250905090565b60606000821415612d79576040518060400160405280600181526020017f30000000000000000000000000000000000000000000000000000000000000008152509050612e8d565b600082905060005b60008214612dab578080612d9490614753565b915050600a82612da4919061503e565b9150612d81565b60008167ffffffffffffffff811115612dc757612dc6613a0d565b5b6040519080825280601f01601f191660200182016040528015612df95781602001600182028036833780820191505090505b5090505b60008514612e8657600182612e129190614cd1565b9150600a85612e21919061506f565b6030612e2d9190614ebb565b60f81b818381518110612e4357612e426144d3565b5b60200101907effffffffffffffffffffffffffffffffffffffffffffffffffffffffffffff1916908160001a905350600a85612e7f919061503e565b9450612dfd565b8093505050505b919050565b505050565b612ea1838361307a565b612eae6000848484612ef2565b612eed576040517f08c379a0000000000000000000000000000000000000000000000000000000008152600401612ee490614fef565b60405180910390fd5b505050565b6000612f138473ffffffffffffffffffffffffffffffffffffffff16613248565b1561306d578373ffffffffffffffffffffffffffffffffffffffff1663150b7a02612f3c61249a565b8786866040518563ffffffff1660e01b8152600401612f5e94939291906150f5565b6020604051808303816000875af1925050508015612f9a57506040513d601f19601f82011682018060405250810190612f979190615156565b60015b61301d573d8060008114612fca576040519150601f19603f3d011682016040523d82523d6000602084013e612fcf565b606091505b50600081511415613015576040517f08c379a000000000000000000000000000000000000000000000000000000000815260040161300c90614fef565b60405180910390fd5b805181602001fd5b63150b7a0260e01b7bffffffffffffffffffffffffffffffffffffffffffffffffffffffff1916817bffffffffffffffffffffffffffffffffffffffffffffffffffffffff191614915050613072565b600190505b949350505050565b600073ffffffffffffffffffffffffffffffffffffffff168273ffffffffffffffffffffffffffffffffffffffff1614156130ea576040517f08c379a00000000000000000000000000000000000000000000000000000000081526004016130e1906151cf565b60405180910390fd5b6130f38161242e565b15613133576040517f08c379a000000000000000000000000000000000000000000000000000000000815260040161312a9061523b565b60405180910390fd5b61313f60008383612e92565b6001600360008473ffffffffffffffffffffffffffffffffffffffff1673ffffffffffffffffffffffffffffffffffffffff168152602001908152602001600020600082825461318f9190614ebb565b92505081905550816002600083815260200190815260200160002060006101000a81548173ffffffffffffffffffffffffffffffffffffffff021916908373ffffffffffffffffffffffffffffffffffffffff160217905550808273ffffffffffffffffffffffffffffffffffffffff16600073ffffffffffffffffffffffffffffffffffffffff167fddf252ad1be2c89b69c2b068fc378daa952ba7f163c4a11628f55a4df523b3ef60405160405180910390a45050565b600080823b905060008111915050919050565b508054613267906140fe565b6000825580601f106132795750613298565b601f01602090049060005260206000209081019061329791906133ad565b5b50565b60405180606001604052806060815260200160008152602001600081525090565b6040518060e00160405280600073ffffffffffffffffffffffffffffffffffffffff168152602001600073ffffffffffffffffffffffffffffffffffffffff168152602001606081526020016060815260200160008152602001600081526020016000151581525090565b828054613333906140fe565b90600052602060002090601f016020900481019282613355576000855561339c565b82601f1061336e57805160ff191683800117855561339c565b8280016001018555821561339c579182015b8281111561339b578251825591602001919060010190613380565b5b5090506133a991906133ad565b5090565b5b808211156133c65760008160009055506001016133ae565b5090565b6000604051905090565b600080fd5b600080fd5b60007fffffffff0000000000000000000000000000000000000000000000000000000082169050919050565b613413816133de565b811461341e57600080fd5b50565b6000813590506134308161340a565b92915050565b60006020828403121561344c5761344b6133d4565b5b600061345a84828501613421565b91505092915050565b60008115159050919050565b61347881613463565b82525050565b6000602082019050613493600083018461346f565b92915050565b600081519050919050565b600082825260208201905092915050565b60005b838110156134d35780820151818401526020810190506134b8565b838111156134e2576000848401525b50505050565b6000601f19601f8301169050919050565b600061350482613499565b61350e81856134a4565b935061351e8185602086016134b5565b613527816134e8565b840191505092915050565b6000602082019050818103600083015261354c81846134f9565b905092915050565b6000819050919050565b61356781613554565b811461357257600080fd5b50565b6000813590506135848161355e565b92915050565b6000602082840312156135a05761359f6133d4565b5b60006135ae84828501613575565b91505092915050565b600073ffffffffffffffffffffffffffffffffffffffff82169050919050565b60006135e2826135b7565b9050919050565b6135f2816135d7565b82525050565b600060208201905061360d60008301846135e9565b92915050565b61361c816135d7565b811461362757600080fd5b50565b60008135905061363981613613565b92915050565b60008060408385031215613656576136556133d4565b5b60006136648582860161362a565b925050602061367585828601613575565b9150509250929050565b600080600060608486031215613698576136976133d4565b5b60006136a68682870161362a565b93505060206136b78682870161362a565b92505060406136c886828701613575565b9150509250925092565b600080fd5b600080fd5b600080fd5b60008083601f8401126136f7576136f66136d2565b5b8235905067ffffffffffffffff811115613714576137136136d7565b5b6020830191508360208202830111156137305761372f6136dc565b5b9250929050565b60008060008060608587031215613751576137506133d4565b5b600085013567ffffffffffffffff81111561376f5761376e6133d9565b5b61377b878288016136e1565b9450945050602061378e87828801613575565b925050604061379f87828801613575565b91505092959194509250565b600081519050919050565b600082825260208201905092915050565b6000819050602082019050919050565b6137e081613554565b82525050565b60006137f283836137d7565b60208301905092915050565b6000602082019050919050565b6000613816826137ab565b61382081856137b6565b935061382b836137c7565b8060005b8381101561385c57815161384388826137e6565b975061384e836137fe565b92505060018101905061382f565b5085935050505092915050565b60006060830160008301518482036000860152613886828261380b565b915050602083015161389b60208601826137d7565b5060408301516138ae60408601826137d7565b508091505092915050565b600060208201905081810360008301526138d38184613869565b905092915050565b6138e4816135d7565b82525050565b600082825260208201905092915050565b600061390682613499565b61391081856138ea565b93506139208185602086016134b5565b613929816134e8565b840191505092915050565b61393d81613463565b82525050565b600060e08301600083015161395b60008601826138db565b50602083015161396e60208601826138db565b506040830151848203604086015261398682826138fb565b915050606083015184820360608601526139a082826138fb565b91505060808301516139b560808601826137d7565b5060a08301516139c860a08601826137d7565b5060c08301516139db60c0860182613934565b508091505092915050565b60006020820190508181036000830152613a008184613943565b905092915050565b600080fd5b7f4e487b7100000000000000000000000000000000000000000000000000000000600052604160045260246000fd5b613a45826134e8565b810181811067ffffffffffffffff82111715613a6457613a63613a0d565b5b80604052505050565b6000613a776133ca565b9050613a838282613a3c565b919050565b600067ffffffffffffffff821115613aa357613aa2613a0d565b5b613aac826134e8565b9050602081019050919050565b82818337600083830152505050565b6000613adb613ad684613a88565b613a6d565b905082815260208101848484011115613af757613af6613a08565b5b613b02848285613ab9565b509392505050565b600082601f830112613b1f57613b1e6136d2565b5b8135613b2f848260208601613ac8565b91505092915050565b600080600080600060a08688031215613b5457613b536133d4565b5b6000613b628882890161362a565b955050602086013567ffffffffffffffff811115613b8357613b826133d9565b5b613b8f88828901613b0a565b945050604086013567ffffffffffffffff811115613bb057613baf6133d9565b5b613bbc88828901613b0a565b9350506060613bcd88828901613575565b9250506080613bde88828901613575565b9150509295509295909350565b613bf481613554565b82525050565b6000602082019050613c0f6000830184613beb565b92915050565b600060208284031215613c2b57613c2a6133d4565b5b6000613c398482850161362a565b91505092915050565b613c4b81613463565b8114613c5657600080fd5b50565b600081359050613c6881613c42565b92915050565b60008060408385031215613c8557613c846133d4565b5b6000613c938582860161362a565b9250506020613ca485828601613c59565b9150509250929050565b600067ffffffffffffffff821115613cc957613cc8613a0d565b5b613cd2826134e8565b9050602081019050919050565b6000613cf2613ced84613cae565b613a6d565b905082815260208101848484011115613d0e57613d0d613a08565b5b613d19848285613ab9565b509392505050565b600082601f830112613d3657613d356136d2565b5b8135613d46848260208601613cdf565b91505092915050565b60008060008060808587031215613d6957613d686133d4565b5b6000613d778782880161362a565b9450506020613d888782880161362a565b9350506040613d9987828801613575565b925050606085013567ffffffffffffffff811115613dba57613db96133d9565b5b613dc687828801613d21565b91505092959194509250565b600080fd5b600080fd5b600067ffffffffffffffff821115613df757613df6613a0d565b5b602082029050602081019050919050565b6000613e1b613e1684613ddc565b613a6d565b90508083825260208201905060208402830185811115613e3e57613e3d6136dc565b5b835b81811015613e675780613e538882613575565b845260208401935050602081019050613e40565b5050509392505050565b600082601f830112613e8657613e856136d2565b5b8135613e96848260208601613e08565b91505092915050565b600060608284031215613eb557613eb4613dd2565b5b613ebf6060613a6d565b9050600082013567ffffffffffffffff811115613edf57613ede613dd7565b5b613eeb84828501613e71565b6000830152506020613eff84828501613575565b6020830152506040613f1384828501613575565b60408301525092915050565b600080600060608486031215613f3857613f376133d4565b5b600084013567ffffffffffffffff811115613f5657613f556133d9565b5b613f6286828701613e9f565b9350506020613f738682870161362a565b9250506040613f8486828701613575565b9150509250925092565b6000604082019050613fa3600083018561346f565b8181036020830152613fb581846134f9565b90509392505050565b600082825260208201905092915050565b6000613fda826137ab565b613fe48185613fbe565b9350613fef836137c7565b8060005b8381101561402057815161400788826137e6565b9750614012836137fe565b925050600181019050613ff3565b5085935050505092915050565b600060208201905081810360008301526140478184613fcf565b905092915050565b60008060408385031215614066576140656133d4565b5b600061407485828601613575565b925050602061408585828601613c59565b9150509250929050565b600080604083850312156140a6576140a56133d4565b5b60006140b48582860161362a565b92505060206140c58582860161362a565b9150509250929050565b7f4e487b7100000000000000000000000000000000000000000000000000000000600052602260045260246000fd5b6000600282049050600182168061411657607f821691505b6020821081141561412a576141296140cf565b5b50919050565b7f4552433732313a20617070726f76656420717565727920666f72206e6f6e657860008201527f697374656e7420746f6b656e0000000000000000000000000000000000000000602082015250565b600061418c602c836134a4565b915061419782614130565b604082019050919050565b600060208201905081810360008301526141bb8161417f565b9050919050565b7f4552433732313a20617070726f76616c20746f2063757272656e74206f776e6560008201527f7200000000000000000000000000000000000000000000000000000000000000602082015250565b600061421e6021836134a4565b9150614229826141c2565b604082019050919050565b6000602082019050818103600083015261424d81614211565b9050919050565b7f4552433732313a20617070726f76652063616c6c6572206973206e6f74206f7760008201527f6e6572206e6f7220617070726f76656420666f7220616c6c0000000000000000602082015250565b60006142b06038836134a4565b91506142bb82614254565b604082019050919050565b600060208201905081810360008301526142df816142a3565b9050919050565b7f446576444944733a20796f752063616e6e6f74207265766f6b6520766320746860008201527f617420796f75206e6f7420697373756564000000000000000000000000000000602082015250565b60006143426031836134a4565b915061434d826142e6565b604082019050919050565b6000602082019050818103600083015261437181614335565b9050919050565b600060608201905061438d60008301866135e9565b61439a60208301856135e9565b6143a76040830184613beb565b949350505050565b7f4552433732313a207472616e736665722063616c6c6572206973206e6f74206f60008201527f776e6572206e6f7220617070726f766564000000000000000000000000000000602082015250565b600061440b6031836134a4565b9150614416826143af565b604082019050919050565b6000602082019050818103600083015261443a816143fe565b9050919050565b7f446576444944733a2076702076616c69642066726f6d206d757374206265206760008201527f726561746572207468616e2076616c696420746f000000000000000000000000602082015250565b600061449d6034836134a4565b91506144a882614441565b604082019050919050565b600060208201905081810360008301526144cc81614490565b9050919050565b7f4e487b7100000000000000000000000000000000000000000000000000000000600052603260045260246000fd5b7f446576444944733a20736f6d652076637320617265206e6f7420657869737473600082015250565b60006145386020836134a4565b915061454382614502565b602082019050919050565b600060208201905081810360008301526145678161452b565b9050919050565b7f446576444944733a20616c6c206f662074686520766373206d7573742062656c60008201527f6f6e6720746f20796f7500000000000000000000000000000000000000000000602082015250565b60006145ca602a836134a4565b91506145d58261456e565b604082019050919050565b600060208201905081810360008301526145f9816145bd565b9050919050565b7f446576444944733a20736f6d6520766373206172652073757370656e64656400600082015250565b6000614636601f836134a4565b915061464182614600565b602082019050919050565b6000602082019050818103600083015261466581614629565b9050919050565b7f446576444944733a2076616c69642066726f6d206d757374206c65737320746860008201527f616e20616c6c207663732076616c69642066726f6d20616e642067726561746560208201527f72207468616e20616c6c207663732076616c696420746f000000000000000000604082015250565b60006146ee6057836134a4565b91506146f98261466c565b606082019050919050565b6000602082019050818103600083015261471d816146e1565b9050919050565b7f4e487b7100000000000000000000000000000000000000000000000000000000600052601160045260246000fd5b600061475e82613554565b91507fffffffffffffffffffffffffffffffffffffffffffffffffffffffffffffffff82141561479157614790614724565b5b600182019050919050565b7f446576444944733a207468697320767320646f6573206e6f7420657869737473600082015250565b60006147d26020836134a4565b91506147dd8261479c565b602082019050919050565b60006020820190508181036000830152614801816147c5565b9050919050565b7f446576444944733a2073656c662069737375696e67206973206e6f742070657260008201527f6d69747465640000000000000000000000000000000000000000000000000000602082015250565b60006148646026836134a4565b915061486f82614808565b604082019050919050565b6000602082019050818103600083015261489381614857565b9050919050565b7f446576444944733a2076632076616c69642066726f6d206d757374206265206760008201527f726561746572207468616e2076616c696420746f000000000000000000000000602082015250565b60006148f66034836134a4565b91506149018261489a565b604082019050919050565b60006020820190508181036000830152614925816148e9565b9050919050565b7f4552433732313a206f776e657220717565727920666f72206e6f6e657869737460008201527f656e7420746f6b656e0000000000000000000000000000000000000000000000602082015250565b60006149886029836134a4565b91506149938261492c565b604082019050919050565b600060208201905081810360008301526149b78161497b565b9050919050565b7f4552433732313a2062616c616e636520717565727920666f7220746865207a6560008201527f726f206164647265737300000000000000000000000000000000000000000000602082015250565b6000614a1a602a836134a4565b9150614a25826149be565b604082019050919050565b60006020820190508181036000830152614a4981614a0d565b9050919050565b7f446576444944733a20796f752063616e6e6f742064656c65746520766320746860008201527f617420796f75206e6f742068656c640000000000000000000000000000000000602082015250565b6000614aac602f836134a4565b9150614ab782614a50565b604082019050919050565b60006020820190508181036000830152614adb81614a9f565b9050919050565b7f4552433732314d657461646174613a2055524920717565727920666f72206e6f60008201527f6e6578697374656e7420746f6b656e0000000000000000000000000000000000602082015250565b6000614b3e602f836134a4565b9150614b4982614ae2565b604082019050919050565b60006020820190508181036000830152614b6d81614b31565b9050919050565b600081905092915050565b6000614b8a82613499565b614b948185614b74565b9350614ba48185602086016134b5565b80840191505092915050565b6000614bbc8285614b7f565b9150614bc88284614b7f565b91508190509392505050565b7f446576444944733a20796f752063616e6e6f74206368616e676520737573706560008201527f6e64656420737461747573206f66207663207468617420796f75206e6f74206960208201527f7373756564000000000000000000000000000000000000000000000000000000604082015250565b6000614c566045836134a4565b9150614c6182614bd4565b606082019050919050565b60006020820190508181036000830152614c8581614c49565b9050919050565b6000608082019050614ca160008301876135e9565b614cae60208301866135e9565b614cbb6040830185613beb565b614cc8606083018461346f565b95945050505050565b6000614cdc82613554565b9150614ce783613554565b925082821015614cfa57614cf9614724565b5b828203905092915050565b7f4552433732313a206f70657261746f7220717565727920666f72206e6f6e657860008201527f697374656e7420746f6b656e0000000000000000000000000000000000000000602082015250565b6000614d61602c836134a4565b9150614d6c82614d05565b604082019050919050565b60006020820190508181036000830152614d9081614d54565b9050919050565b7f4552433732313a207472616e73666572206f6620746f6b656e2074686174206960008201527f73206e6f74206f776e0000000000000000000000000000000000000000000000602082015250565b6000614df36029836134a4565b9150614dfe82614d97565b604082019050919050565b60006020820190508181036000830152614e2281614de6565b9050919050565b7f4552433732313a207472616e7366657220746f20746865207a65726f2061646460008201527f7265737300000000000000000000000000000000000000000000000000000000602082015250565b6000614e856024836134a4565b9150614e9082614e29565b604082019050919050565b60006020820190508181036000830152614eb481614e78565b9050919050565b6000614ec682613554565b9150614ed183613554565b9250827fffffffffffffffffffffffffffffffffffffffffffffffffffffffffffffffff03821115614f0657614f05614724565b5b828201905092915050565b7f4552433732313a20617070726f766520746f2063616c6c657200000000000000600082015250565b6000614f476019836134a4565b9150614f5282614f11565b602082019050919050565b60006020820190508181036000830152614f7681614f3a565b9050919050565b7f4552433732313a207472616e7366657220746f206e6f6e20455243373231526560008201527f63656976657220696d706c656d656e7465720000000000000000000000000000602082015250565b6000614fd96032836134a4565b9150614fe482614f7d565b604082019050919050565b6000602082019050818103600083015261500881614fcc565b9050919050565b7f4e487b7100000000000000000000000000000000000000000000000000000000600052601260045260246000fd5b600061504982613554565b915061505483613554565b9250826150645761506361500f565b5b828204905092915050565b600061507a82613554565b915061508583613554565b9250826150955761509461500f565b5b828206905092915050565b600081519050919050565b600082825260208201905092915050565b60006150c7826150a0565b6150d181856150ab565b93506150e18185602086016134b5565b6150ea816134e8565b840191505092915050565b600060808201905061510a60008301876135e9565b61511760208301866135e9565b6151246040830185613beb565b818103606083015261513681846150bc565b905095945050505050565b6000815190506151508161340a565b92915050565b60006020828403121561516c5761516b6133d4565b5b600061517a84828501615141565b91505092915050565b7f4552433732313a206d696e7420746f20746865207a65726f2061646472657373600082015250565b60006151b96020836134a4565b91506151c482615183565b602082019050919050565b600060208201905081810360008301526151e8816151ac565b9050919050565b7f4552433732313a20746f6b656e20616c7265616479206d696e74656400000000600082015250565b6000615225601c836134a4565b9150615230826151ef565b602082019050919050565b6000602082019050818103600083015261525481615218565b905091905056fe446576444944733a2076702069732065787069726564206f72206e6f74207374617274656420796574446576444944733a20686f6c646572206973206e6f74206f776e6572206f6620616c6c20766373446576444944733a20736f6d652076637320617265207265766f6b6564206f72206e6f7420657869737473446576444944733a20736f6d6520766373206172652065787069726564206f72206e6f74207374617274656420796574a2646970667358221220ad7e0d0b2c7072421aa1443a80eae806da38f0a9906ca5301633754018d4308564736f6c634300080a0033446576656c6f7065727320446563656e7472616c697a6564204964656e746966696572",
  "linkReferences": {},
  "deployedLinkReferences": {}
}